{
  "contractName": "Igralnica",
  "abi": [
    {
      "inputs": [],
      "payable": false,
      "stateMutability": "nonpayable",
      "type": "constructor",
      "signature": "constructor"
    },
    {
      "constant": true,
      "inputs": [],
      "name": "getEntranceFee",
      "outputs": [
        {
          "name": "",
          "type": "uint256"
        }
      ],
      "payable": false,
      "stateMutability": "view",
      "type": "function",
      "signature": "0x09bc33a7"
    },
    {
      "constant": true,
      "inputs": [],
      "name": "getCasinoFee",
      "outputs": [
        {
          "name": "",
          "type": "uint256"
        }
      ],
      "payable": false,
      "stateMutability": "view",
      "type": "function",
      "signature": "0xc28f5a8f"
    },
    {
      "constant": true,
      "inputs": [],
      "name": "getMyGameStartBlock",
      "outputs": [
        {
          "name": "",
          "type": "uint256"
        }
      ],
      "payable": false,
      "stateMutability": "view",
      "type": "function",
      "signature": "0xf2708e91"
    },
    {
      "constant": true,
      "inputs": [],
      "name": "getMyIndex",
      "outputs": [
        {
          "name": "",
          "type": "uint256"
        }
      ],
      "payable": false,
      "stateMutability": "view",
      "type": "function",
      "signature": "0x8d2a5162"
    },
    {
      "constant": true,
      "inputs": [],
      "name": "getMyTimeLimit",
      "outputs": [
        {
          "name": "",
          "type": "uint256"
        }
      ],
      "payable": false,
      "stateMutability": "view",
      "type": "function",
      "signature": "0xeacfe724"
    },
    {
      "constant": true,
      "inputs": [],
      "name": "getMyWinner",
      "outputs": [
        {
          "name": "",
          "type": "address"
        }
      ],
      "payable": false,
      "stateMutability": "view",
      "type": "function",
      "signature": "0x55585ddf"
    },
    {
      "constant": true,
      "inputs": [],
      "name": "getMyGameState",
      "outputs": [
        {
          "name": "",
          "type": "uint256"
        }
      ],
      "payable": false,
      "stateMutability": "view",
      "type": "function",
      "signature": "0x0fe5155b"
    },
    {
      "constant": true,
      "inputs": [
        {
          "name": "gameId",
          "type": "uint256"
        },
        {
          "name": "playerId",
          "type": "uint256"
        }
      ],
      "name": "getDigitalSignature",
      "outputs": [
        {
          "name": "",
          "type": "bytes"
        }
      ],
      "payable": false,
      "stateMutability": "view",
      "type": "function",
      "signature": "0x709e440f"
    },
    {
      "constant": true,
      "inputs": [
        {
          "name": "gameId",
          "type": "uint256"
        },
        {
          "name": "playerId",
          "type": "uint256"
        }
      ],
      "name": "getHash",
      "outputs": [
        {
          "name": "",
          "type": "bytes32"
        }
      ],
      "payable": false,
      "stateMutability": "view",
      "type": "function",
      "signature": "0x1b855044"
    },
    {
      "constant": true,
      "inputs": [
        {
          "name": "gameId",
          "type": "uint256"
        },
        {
          "name": "playerId",
          "type": "uint256"
        }
      ],
      "name": "getPlayerAddress",
      "outputs": [
        {
          "name": "",
          "type": "address"
        }
      ],
      "payable": false,
      "stateMutability": "view",
      "type": "function",
      "signature": "0x15ec12cd"
    },
    {
      "constant": true,
      "inputs": [
        {
          "name": "gameId",
          "type": "uint256"
        }
      ],
      "name": "getXor",
      "outputs": [
        {
          "name": "",
          "type": "bytes32"
        }
      ],
      "payable": false,
      "stateMutability": "view",
      "type": "function",
      "signature": "0x6c63451c"
    },
    {
      "constant": true,
      "inputs": [
        {
          "name": "gameId",
          "type": "uint256"
        }
      ],
      "name": "getDecimalValue",
      "outputs": [
        {
          "name": "",
          "type": "uint256"
        }
      ],
      "payable": false,
      "stateMutability": "view",
      "type": "function",
      "signature": "0xdbfa0868"
    },
    {
      "constant": true,
      "inputs": [
        {
          "name": "gameId",
          "type": "uint256"
        }
      ],
      "name": "getWinnerIndex",
      "outputs": [
        {
          "name": "",
          "type": "uint256"
        }
      ],
      "payable": false,
      "stateMutability": "view",
      "type": "function",
      "signature": "0xa5b679c2"
    },
    {
      "constant": true,
      "inputs": [],
      "name": "getMyGameId",
      "outputs": [
        {
          "name": "",
          "type": "uint256"
        }
      ],
      "payable": false,
      "stateMutability": "view",
      "type": "function",
      "signature": "0x3cd98967"
    },
    {
      "constant": true,
      "inputs": [],
      "name": "getGameCount",
      "outputs": [
        {
          "name": "",
          "type": "uint256"
        }
      ],
      "payable": false,
      "stateMutability": "view",
      "type": "function",
      "signature": "0xe87c0ee6"
    },
    {
      "constant": true,
      "inputs": [],
      "name": "getContractBalance",
      "outputs": [
        {
          "name": "",
          "type": "uint256"
        }
      ],
      "payable": false,
      "stateMutability": "view",
      "type": "function",
      "signature": "0x6f9fb98a"
    },
    {
      "constant": false,
      "inputs": [
        {
          "name": "signature",
          "type": "bytes"
        }
      ],
      "name": "EnterTheGame",
      "outputs": [],
      "payable": true,
      "stateMutability": "payable",
      "type": "function",
      "signature": "0x3b4d5c60"
    },
    {
      "constant": false,
      "inputs": [
        {
          "name": "hash",
          "type": "bytes32"
        }
      ],
      "name": "Reveal",
      "outputs": [
        {
          "name": "",
          "type": "address"
        }
      ],
      "payable": false,
      "stateMutability": "nonpayable",
      "type": "function",
      "signature": "0x48565d3e"
    },
    {
      "constant": false,
      "inputs": [],
      "name": "LeaveTheGame",
      "outputs": [],
      "payable": false,
      "stateMutability": "nonpayable",
      "type": "function",
      "signature": "0xd7d617cd"
    },
    {
      "constant": true,
      "inputs": [],
      "name": "getReward",
      "outputs": [
        {
          "name": "",
          "type": "uint256"
        }
      ],
      "payable": false,
      "stateMutability": "view",
      "type": "function",
      "signature": "0x3d18b912"
    },
    {
      "constant": false,
      "inputs": [],
      "name": "AbortGame",
      "outputs": [],
      "payable": false,
      "stateMutability": "nonpayable",
      "type": "function",
      "signature": "0xb8e64977"
    },
    {
      "constant": true,
      "inputs": [
        {
          "name": "gameId",
          "type": "uint256"
        }
      ],
      "name": "calculateWinner",
      "outputs": [
        {
          "name": "",
          "type": "uint256"
        }
      ],
      "payable": false,
      "stateMutability": "view",
      "type": "function",
      "signature": "0xda1086a0"
    },
    {
      "constant": false,
      "inputs": [],
      "name": "TakeReward",
      "outputs": [],
      "payable": false,
      "stateMutability": "nonpayable",
      "type": "function",
      "signature": "0x544d8a34"
    },
    {
      "constant": true,
      "inputs": [
        {
          "name": "hash",
          "type": "bytes32"
        },
        {
          "name": "signature",
          "type": "bytes"
        }
      ],
      "name": "recover",
      "outputs": [
        {
          "name": "",
          "type": "address"
        }
      ],
      "payable": false,
      "stateMutability": "pure",
      "type": "function",
      "signature": "0x19045a25"
    },
    {
      "constant": true,
      "inputs": [
        {
          "name": "hash",
          "type": "bytes32"
        }
      ],
      "name": "toEthSignedMessageHash",
      "outputs": [
        {
          "name": "",
          "type": "bytes32"
        }
      ],
      "payable": false,
      "stateMutability": "pure",
      "type": "function",
      "signature": "0x918a15cf"
    }
  ],
  "bytecode": "0x608060405266b1a2bc2ec500006001556611c37937e08000600255611680600355600160045534801561003157600080fd5b50336000806101000a81548173ffffffffffffffffffffffffffffffffffffffff021916908373ffffffffffffffffffffffffffffffffffffffff160217905550613f93806100816000396000f3fe608060405260043610610149576000357c0100000000000000000000000000000000000000000000000000000000900463ffffffff16806309bc33a71461014e5780630fe5155b1461017957806315ec12cd146101a457806319045a25146102295780631b8550441461033b5780633b4d5c60146103945780633cd989671461044f5780633d18b9121461047a57806348565d3e146104a5578063544d8a341461052057806355585ddf146105375780636c63451c1461058e5780636f9fb98a146105dd578063709e440f146106085780638d2a5162146106c6578063918a15cf146106f1578063a5b679c214610740578063b8e649771461078f578063c28f5a8f146107a6578063d7d617cd146107d1578063da1086a0146107e8578063dbfa086814610837578063e87c0ee614610886578063eacfe724146108b1578063f2708e91146108dc575b600080fd5b34801561015a57600080fd5b50610163610907565b6040518082815260200191505060405180910390f35b34801561018557600080fd5b5061018e610911565b6040518082815260200191505060405180910390f35b3480156101b057600080fd5b506101e7600480360360408110156101c757600080fd5b810190808035906020019092919080359060200190929190505050610a14565b604051808273ffffffffffffffffffffffffffffffffffffffff1673ffffffffffffffffffffffffffffffffffffffff16815260200191505060405180910390f35b34801561023557600080fd5b506102f96004803603604081101561024c57600080fd5b81019080803590602001909291908035906020019064010000000081111561027357600080fd5b82018360208201111561028557600080fd5b803590602001918460018302840111640100000000831117156102a757600080fd5b91908080601f016020809104026020016040519081016040528093929190818152602001838380828437600081840152601f19601f820116905080830192505050505050509192919290505050610cd7565b604051808273ffffffffffffffffffffffffffffffffffffffff1673ffffffffffffffffffffffffffffffffffffffff16815260200191505060405180910390f35b34801561034757600080fd5b5061037e6004803603604081101561035e57600080fd5b810190808035906020019092919080359060200190929190505050610dcb565b6040518082815260200191505060405180910390f35b61044d600480360360208110156103aa57600080fd5b81019080803590602001906401000000008111156103c757600080fd5b8201836020820111156103d957600080fd5b803590602001918460018302840111640100000000831117156103fb57600080fd5b91908080601f016020809104026020016040519081016040528093929190818152602001838380828437600081840152601f19601f82011690508083019250505050505050919291929050505061108e565b005b34801561045b57600080fd5b506104646116ab565b6040518082815260200191505060405180910390f35b34801561048657600080fd5b5061048f6116f2565b6040518082815260200191505060405180910390f35b3480156104b157600080fd5b506104de600480360360208110156104c857600080fd5b8101908080359060200190929190505050611703565b604051808273ffffffffffffffffffffffffffffffffffffffff1673ffffffffffffffffffffffffffffffffffffffff16815260200191505060405180910390f35b34801561052c57600080fd5b50610535611dbb565b005b34801561054357600080fd5b5061054c612106565b604051808273ffffffffffffffffffffffffffffffffffffffff1673ffffffffffffffffffffffffffffffffffffffff16815260200191505060405180910390f35b34801561059a57600080fd5b506105c7600480360360208110156105b157600080fd5b8101908080359060200190929190505050612398565b6040518082815260200191505060405180910390f35b3480156105e957600080fd5b506105f2612648565b6040518082815260200191505060405180910390f35b34801561061457600080fd5b5061064b6004803603604081101561062b57600080fd5b810190808035906020019092919080359060200190929190505050612667565b6040518080602001828103825283818151815260200191508051906020019080838360005b8381101561068b578082015181840152602081019050610670565b50505050905090810190601f1680156106b85780820380516001836020036101000a031916815260200191505b509250505060405180910390f35b3480156106d257600080fd5b506106db61292b565b6040518082815260200191505060405180910390f35b3480156106fd57600080fd5b5061072a6004803603602081101561071457600080fd5b8101908080359060200190929190505050612a48565b6040518082815260200191505060405180910390f35b34801561074c57600080fd5b506107796004803603602081101561076357600080fd5b8101908080359060200190929190505050612aa0565b6040518082815260200191505060405180910390f35b34801561079b57600080fd5b506107a4612d51565b005b3480156107b257600080fd5b506107bb61316c565b6040518082815260200191505060405180910390f35b3480156107dd57600080fd5b506107e6613176565b005b3480156107f457600080fd5b506108216004803603602081101561080b57600080fd5b81019080803590602001909291905050506133ac565b6040518082815260200191505060405180910390f35b34801561084357600080fd5b506108706004803603602081101561085a57600080fd5b8101908080359060200190929190505050613503565b6040518082815260200191505060405180910390f35b34801561089257600080fd5b5061089b6137b4565b6040518082815260200191505060405180910390f35b3480156108bd57600080fd5b506108c66137be565b6040518082815260200191505060405180910390f35b3480156108e857600080fd5b506108f16138b8565b6040518082815260200191505060405180910390f35b6000600154905090565b60008061091c6116ab565b9050600060056000838152602001908152602001600020905060008160000160009054906101000a900460ff1690506000600281111561095857fe5b81600281111561096457fe5b14156109765760009350505050610a11565b6001600281111561098357fe5b81600281111561098f57fe5b1415610a0957600082600c0160003373ffffffffffffffffffffffffffffffffffffffff1673ffffffffffffffffffffffffffffffffffffffff16815260200190815260200160002060009054906101000a900460ff1690508015156109fc576001945050505050610a11565b6002945050505050610a11565b600393505050505b90565b60008083111515610a8d576040517f08c379a00000000000000000000000000000000000000000000000000000000081526004018080602001828103825260138152602001807f49442049677265206e692076656c6a6176656e0000000000000000000000000081525060200191505060405180910390fd5b610a95613bab565b6005600085815260200190815260200160002061014060405190810160405290816000820160009054906101000a900460ff166002811115610ad357fe5b6002811115610ade57fe5b815260200160018201548152602001600282015481526020016003820154815260200160048201600280602002604051908101604052809291906000905b82821015610bcf578382018054600181600116156101000203166002900480601f016020809104026020016040519081016040528092919081815260200182805460018160011615610100020316600290048015610bbb5780601f10610b9057610100808354040283529160200191610bbb565b820191906000526020600020905b815481529060010190602001808311610b9e57829003601f168201915b505050505081526020019060010190610b1c565b50505050815260200160068201600280602002604051908101604052809291908260028015610c13576020028201915b815481526020019060010190808311610bff575b5050505050815260200160088201600280602002604051908101604052809291908260028015610c8e576020028201915b8160009054906101000a900473ffffffffffffffffffffffffffffffffffffffff1673ffffffffffffffffffffffffffffffffffffffff1681526020019060010190808311610c44575b50505050508152602001600d8201548152602001600e8201548152602001600f8201548152505090508060c0015183600281101515610cc957fe5b602002015191505092915050565b6000806000806000610ce887612a48565b905060418651141515610d02576000945050505050610dc5565b6020860151935060408601519250606086015160001a9150601b8260ff161015610d2d57601b820191505b601b8260ff1614158015610d455750601c8260ff1614155b15610d57576000945050505050610dc5565b60018183868660405160008152602001604052604051808581526020018460ff1660ff1681526020018381526020018281526020019450505050506020604051602081039080840390855afa158015610db4573d6000803e3d6000fd5b505050602060405103519450505050505b92915050565b60008083111515610e44576040517f08c379a00000000000000000000000000000000000000000000000000000000081526004018080602001828103825260148152602001807f47616d65204944206973206e6f742076616c696400000000000000000000000081525060200191505060405180910390fd5b610e4c613bab565b6005600085815260200190815260200160002061014060405190810160405290816000820160009054906101000a900460ff166002811115610e8a57fe5b6002811115610e9557fe5b815260200160018201548152602001600282015481526020016003820154815260200160048201600280602002604051908101604052809291906000905b82821015610f86578382018054600181600116156101000203166002900480601f016020809104026020016040519081016040528092919081815260200182805460018160011615610100020316600290048015610f725780601f10610f4757610100808354040283529160200191610f72565b820191906000526020600020905b815481529060010190602001808311610f5557829003601f168201915b505050505081526020019060010190610ed3565b50505050815260200160068201600280602002604051908101604052809291908260028015610fca576020028201915b815481526020019060010190808311610fb6575b5050505050815260200160088201600280602002604051908101604052809291908260028015611045576020028201915b8160009054906101000a900473ffffffffffffffffffffffffffffffffffffffff1673ffffffffffffffffffffffffffffffffffffffff1681526020019060010190808311610ffb575b50505050508152602001600d8201548152602001600e8201548152602001600f8201548152505090508060a001518360028110151561108057fe5b602002015191505092915050565b600154341015151561112e576040517f08c379a00000000000000000000000000000000000000000000000000000000081526004018080602001828103825260258152602001807f4e6f7420656e6f75676820657468657220666f722074686520656e7472616e6381526020017f652066656500000000000000000000000000000000000000000000000000000081525060400191505060405180910390fd5b6000600154340390503373ffffffffffffffffffffffffffffffffffffffff166108fc829081150290604051600060405180830381858888f1935050505015801561117d573d6000803e3d6000fd5b506000600660003373ffffffffffffffffffffffffffffffffffffffff1673ffffffffffffffffffffffffffffffffffffffff16815260200190815260200160002054141515611235576040517f08c379a00000000000000000000000000000000000000000000000000000000081526004018080602001828103825260198152602001807f506c6179657220697320616c726561647920696e2067616d650000000000000081525060200191505060405180910390fd5b60006005600060045481526020019081526020016000209050600281600201541015156112ca576040517f08c379a00000000000000000000000000000000000000000000000000000000081526004018080602001828103825260148152602001807f47616d6520697320616c72656164792066756c6c00000000000000000000000081525060200191505060405180910390fd5b600060028111156112d757fe5b8160000160009054906101000a900460ff1660028111156112f457fe5b14151561138f576040517f08c379a00000000000000000000000000000000000000000000000000000000081526004018080602001828103825260378152602001807f47616d65206973206e6f206c6f6e67657220696e20746865207361747374652081526020017f6f6620616363657074696e67207369676e61747572657300000000000000000081525060400191505060405180910390fd5b828160040182600201546002811015156113a557fe5b0190805190602001906113b9929190613c1f565b50806002015481600a0160003373ffffffffffffffffffffffffffffffffffffffff1673ffffffffffffffffffffffffffffffffffffffff168152602001908152602001600020819055503381600801826002015460028110151561141a57fe5b0160006101000a81548173ffffffffffffffffffffffffffffffffffffffff021916908373ffffffffffffffffffffffffffffffffffffffff16021790555060018160020160008282540192505081905550600454600660003373ffffffffffffffffffffffffffffffffffffffff1673ffffffffffffffffffffffffffffffffffffffff16815260200190815260200160002081905550600281600201541015156115d55760018160000160006101000a81548160ff021916908360028111156114e157fe5b0217905550438160010181905550806005600060045481526020019081526020016000206000820160009054906101000a900460ff168160000160006101000a81548160ff0219169083600281111561153657fe5b0217905550600182015481600101556002820154816002015560038201548160030155600482018160040190600261156f929190613c9f565b506006820181600601906002611586929190613cfa565b50600882018160080190600261159d929190613d37565b50600d82015481600d0155600e82015481600e0155600f82015481600f015590505060016004600082825401925050819055506116a6565b806005600060045481526020019081526020016000206000820160009054906101000a900460ff168160000160006101000a81548160ff0219169083600281111561161c57fe5b02179055506001820154816001015560028201548160020155600382015481600301556004820181600401906002611655929190613c9f565b50600682018160060190600261166c929190613cfa565b506008820181600801906002611683929190613d37565b50600d82015481600d0155600e82015481600e0155600f82015481600f01559050505b505050565b6000600660003373ffffffffffffffffffffffffffffffffffffffff1673ffffffffffffffffffffffffffffffffffffffff16815260200190815260200160002054905090565b600060025460026001540203905090565b600080600660003373ffffffffffffffffffffffffffffffffffffffff1673ffffffffffffffffffffffffffffffffffffffff1681526020019081526020016000205490506000811115156117c0576040517f08c379a00000000000000000000000000000000000000000000000000000000081526004018080602001828103825260148152602001807f47616d65204944206973206e6f742076616c696400000000000000000000000081525060200191505060405180910390fd5b600454811115151561183a576040517f08c379a00000000000000000000000000000000000000000000000000000000081526004018080602001828103825260148152602001807f47616d65204944206973206e6f742076616c696400000000000000000000000081525060200191505060405180910390fd5b60006005600083815260200190815260200160002090506001600281111561185e57fe5b8160000160009054906101000a900460ff16600281111561187b57fe5b141515611916576040517f08c379a000000000000000000000000000000000000000000000000000000000815260040180806020018281038252602c8152602001807f47616d65206973206e6f7420696e20746865207374617465206f66206163636581526020017f7074696e672076616c756573000000000000000000000000000000000000000081525060400191505060405180910390fd5b6000151581600c0160003373ffffffffffffffffffffffffffffffffffffffff1673ffffffffffffffffffffffffffffffffffffffff16815260200190815260200160002060009054906101000a900460ff161515141515611a06576040517f08c379a00000000000000000000000000000000000000000000000000000000081526004018080602001828103825260218152602001807f506c6179657220616c72656164792072657665616c6564206869732076616c7581526020017f650000000000000000000000000000000000000000000000000000000000000081525060400191505060405180910390fd5b600081600a0160003373ffffffffffffffffffffffffffffffffffffffff1673ffffffffffffffffffffffffffffffffffffffff16815260200190815260200160002054905060008260040182600281101515611a5f57fe5b0190506000611b0787838054600181600116156101000203166002900480601f016020809104026020016040519081016040528092919081815260200182805460018160011615610100020316600290048015611afd5780601f10611ad257610100808354040283529160200191611afd565b820191906000526020600020905b815481529060010190602001808311611ae057829003601f168201915b5050505050610cd7565b90503373ffffffffffffffffffffffffffffffffffffffff168173ffffffffffffffffffffffffffffffffffffffff16141515611bd2576040517f08c379a00000000000000000000000000000000000000000000000000000000081526004018080602001828103825260228152602001807f56616c756520646f6573206e6f74206d6174636820746865207369676e61747581526020017f726500000000000000000000000000000000000000000000000000000000000081525060400191505060405180910390fd5b600184600c0160003373ffffffffffffffffffffffffffffffffffffffff1673ffffffffffffffffffffffffffffffffffffffff16815260200190815260200160002060006101000a81548160ff02191690831515021790555060018460030160008282540192505081905550868460060184600281101515611c5157fe5b0181905550600284600301541415611ce35760028460000160006101000a81548160ff02191690836002811115611c8457fe5b0217905550836006016001600281101515611c9b57fe5b0154846006016000600281101515611caf57fe5b01541884600d018190555083600d01546001900484600e01819055506000611cd6866133ac565b90508085600f0181905550505b83600560008781526020019081526020016000206000820160009054906101000a900460ff168160000160006101000a81548160ff02191690836002811115611d2857fe5b02179055506001820154816001015560028201548160020155600382015481600301556004820181600401906002611d61929190613c9f565b506006820181600601906002611d78929190613cfa565b506008820181600801906002611d8f929190613d37565b50600d82015481600d0155600e82015481600e0155600f82015481600f01559050505050505050919050565b6000600660003373ffffffffffffffffffffffffffffffffffffffff1673ffffffffffffffffffffffffffffffffffffffff168152602001908152602001600020549050600081111515611e0e57600080fd5b600060056000838152602001908152602001600020905060016002811115611e3257fe5b8160000160009054906101000a900460ff166002811115611e4f57fe5b141515611e5b57600080fd5b600081600c0160003373ffffffffffffffffffffffffffffffffffffffff1673ffffffffffffffffffffffffffffffffffffffff16815260200190815260200160002060009054906101000a900460ff16905060011515811515141515611ec157600080fd5b60006003548360010154019050804310151515611f46576040517f08c379a000000000000000000000000000000000000000000000000000000000815260040180806020018281038252601a8152602001807f54696d65206c696d6974206973206e6f74206f7665722079657400000000000081525060200191505060405180910390fd5b6000611f506116f2565b90503373ffffffffffffffffffffffffffffffffffffffff166108fc829081150290604051600060405180830381858888f19350505050158015611f98573d6000803e3d6000fd5b506000809054906101000a900473ffffffffffffffffffffffffffffffffffffffff1673ffffffffffffffffffffffffffffffffffffffff166108fc6002549081150290604051600060405180830381858888f19350505050158015612002573d6000803e3d6000fd5b50600084600801600060028110151561201757fe5b0160009054906101000a900473ffffffffffffffffffffffffffffffffffffffff169050600085600801600160028110151561204f57fe5b0160009054906101000a900473ffffffffffffffffffffffffffffffffffffffff1690506000600660008473ffffffffffffffffffffffffffffffffffffffff1673ffffffffffffffffffffffffffffffffffffffff168152602001908152602001600020819055506000600660008373ffffffffffffffffffffffffffffffffffffffff1673ffffffffffffffffffffffffffffffffffffffff1681526020019081526020016000208190555050505050505050565b600080600660003373ffffffffffffffffffffffffffffffffffffffff1673ffffffffffffffffffffffffffffffffffffffff168152602001908152602001600020549050612153613bab565b6005600083815260200190815260200160002061014060405190810160405290816000820160009054906101000a900460ff16600281111561219157fe5b600281111561219c57fe5b815260200160018201548152602001600282015481526020016003820154815260200160048201600280602002604051908101604052809291906000905b8282101561228d578382018054600181600116156101000203166002900480601f0160208091040260200160405190810160405280929190818152602001828054600181600116156101000203166002900480156122795780601f1061224e57610100808354040283529160200191612279565b820191906000526020600020905b81548152906001019060200180831161225c57829003601f168201915b5050505050815260200190600101906121da565b505050508152602001600682016002806020026040519081016040528092919082600280156122d1576020028201915b8154815260200190600101908083116122bd575b505050505081526020016008820160028060200260405190810160405280929190826002801561234c576020028201915b8160009054906101000a900473ffffffffffffffffffffffffffffffffffffffff1673ffffffffffffffffffffffffffffffffffffffff1681526020019060010190808311612302575b50505050508152602001600d8201548152602001600e8201548152602001600f8201548152505090508060c0015181610120015160028110151561238c57fe5b60200201519250505090565b60008082111515612411576040517f08c379a00000000000000000000000000000000000000000000000000000000081526004018080602001828103825260138152602001807f49442049677265206e692076656c6a6176656e0000000000000000000000000081525060200191505060405180910390fd5b612419613bab565b6005600084815260200190815260200160002061014060405190810160405290816000820160009054906101000a900460ff16600281111561245757fe5b600281111561246257fe5b815260200160018201548152602001600282015481526020016003820154815260200160048201600280602002604051908101604052809291906000905b82821015612553578382018054600181600116156101000203166002900480601f01602080910402602001604051908101604052809291908181526020018280546001816001161561010002031660029004801561253f5780601f106125145761010080835404028352916020019161253f565b820191906000526020600020905b81548152906001019060200180831161252257829003601f168201915b5050505050815260200190600101906124a0565b50505050815260200160068201600280602002604051908101604052809291908260028015612597576020028201915b815481526020019060010190808311612583575b5050505050815260200160088201600280602002604051908101604052809291908260028015612612576020028201915b8160009054906101000a900473ffffffffffffffffffffffffffffffffffffffff1673ffffffffffffffffffffffffffffffffffffffff16815260200190600101908083116125c8575b50505050508152602001600d8201548152602001600e8201548152602001600f8201548152505090508060e00151915050919050565b60003073ffffffffffffffffffffffffffffffffffffffff1631905090565b60606000831115156126e1576040517f08c379a00000000000000000000000000000000000000000000000000000000081526004018080602001828103825260148152602001807f47616d65204944206973206e6f742076616c696400000000000000000000000081525060200191505060405180910390fd5b6126e9613bab565b6005600085815260200190815260200160002061014060405190810160405290816000820160009054906101000a900460ff16600281111561272757fe5b600281111561273257fe5b815260200160018201548152602001600282015481526020016003820154815260200160048201600280602002604051908101604052809291906000905b82821015612823578382018054600181600116156101000203166002900480601f01602080910402602001604051908101604052809291908181526020018280546001816001161561010002031660029004801561280f5780601f106127e45761010080835404028352916020019161280f565b820191906000526020600020905b8154815290600101906020018083116127f257829003601f168201915b505050505081526020019060010190612770565b50505050815260200160068201600280602002604051908101604052809291908260028015612867576020028201915b815481526020019060010190808311612853575b50505050508152602001600882016002806020026040519081016040528092919082600280156128e2576020028201915b8160009054906101000a900473ffffffffffffffffffffffffffffffffffffffff1673ffffffffffffffffffffffffffffffffffffffff1681526020019060010190808311612898575b50505050508152602001600d8201548152602001600e8201548152602001600f82015481525050905080608001518360028110151561291d57fe5b602002015191505092915050565b600080600660003373ffffffffffffffffffffffffffffffffffffffff1673ffffffffffffffffffffffffffffffffffffffff1681526020019081526020016000205490506000811115156129e8576040517f08c379a000000000000000000000000000000000000000000000000000000000815260040180806020018281038252601d8152602001807f55706f7261626e696b207472656e75746e6f206e69207620696772692e00000081525060200191505060405180910390fd5b600060056000838152602001908152602001600020905080600a0160003373ffffffffffffffffffffffffffffffffffffffff1673ffffffffffffffffffffffffffffffffffffffff168152602001908152602001600020549250505090565b60008160405160200180807f19457468657265756d205369676e6564204d6573736167653a0a333200000000815250601c01828152602001915050604051602081830303815290604052805190602001209050919050565b60008082111515612b19576040517f08c379a00000000000000000000000000000000000000000000000000000000081526004018080602001828103825260138152602001807f49442049677265206e692076656c6a6176656e0000000000000000000000000081525060200191505060405180910390fd5b612b21613bab565b6005600084815260200190815260200160002061014060405190810160405290816000820160009054906101000a900460ff166002811115612b5f57fe5b6002811115612b6a57fe5b815260200160018201548152602001600282015481526020016003820154815260200160048201600280602002604051908101604052809291906000905b82821015612c5b578382018054600181600116156101000203166002900480601f016020809104026020016040519081016040528092919081815260200182805460018160011615610100020316600290048015612c475780601f10612c1c57610100808354040283529160200191612c47565b820191906000526020600020905b815481529060010190602001808311612c2a57829003601f168201915b505050505081526020019060010190612ba8565b50505050815260200160068201600280602002604051908101604052809291908260028015612c9f576020028201915b815481526020019060010190808311612c8b575b5050505050815260200160088201600280602002604051908101604052809291908260028015612d1a576020028201915b8160009054906101000a900473ffffffffffffffffffffffffffffffffffffffff1673ffffffffffffffffffffffffffffffffffffffff1681526020019060010190808311612cd0575b50505050508152602001600d8201548152602001600e8201548152602001600f820154815250509050806101200151915050919050565b6000600660003373ffffffffffffffffffffffffffffffffffffffff1673ffffffffffffffffffffffffffffffffffffffff168152602001908152602001600020549050600081111515612e0d576040517f08c379a00000000000000000000000000000000000000000000000000000000081526004018080602001828103825260198152602001807f506c61796572206973206e6f7420696e20616e792067616d650000000000000081525060200191505060405180910390fd5b612e15613bab565b6005600083815260200190815260200160002061014060405190810160405290816000820160009054906101000a900460ff166002811115612e5357fe5b6002811115612e5e57fe5b815260200160018201548152602001600282015481526020016003820154815260200160048201600280602002604051908101604052809291906000905b82821015612f4f578382018054600181600116156101000203166002900480601f016020809104026020016040519081016040528092919081815260200182805460018160011615610100020316600290048015612f3b5780601f10612f1057610100808354040283529160200191612f3b565b820191906000526020600020905b815481529060010190602001808311612f1e57829003601f168201915b505050505081526020019060010190612e9c565b50505050815260200160068201600280602002604051908101604052809291908260028015612f93576020028201915b815481526020019060010190808311612f7f575b505050505081526020016008820160028060200260405190810160405280929190826002801561300e576020028201915b8160009054906101000a900473ffffffffffffffffffffffffffffffffffffffff1673ffffffffffffffffffffffffffffffffffffffff1681526020019060010190808311612fc4575b50505050508152602001600d8201548152602001600e8201548152602001600f8201548152505090506000600281111561304457fe5b8160000151600281111561305457fe5b1415156130c9576040517f08c379a00000000000000000000000000000000000000000000000000000000081526004018080602001828103825260208152602001807f47616d65206973206e6f206c6f6e67657220696e20656e74727920706861736581525060200191505060405180910390fd5b6000600660003373ffffffffffffffffffffffffffffffffffffffff1673ffffffffffffffffffffffffffffffffffffffff168152602001908152602001600020819055503373ffffffffffffffffffffffffffffffffffffffff166108fc6001549081150290604051600060405180830381858888f19350505050158015613156573d6000803e3d6000fd5b5060016004600082825401925050819055505050565b6000600254905090565b6000600660003373ffffffffffffffffffffffffffffffffffffffff1673ffffffffffffffffffffffffffffffffffffffff1681526020019081526020016000205490506000811115156131c957600080fd5b60006005600083815260200190815260200160002090506002808111156131ec57fe5b8160000160009054906101000a900460ff16600281111561320957fe5b14151561321557600080fd5b600081600a0160003373ffffffffffffffffffffffffffffffffffffffff1673ffffffffffffffffffffffffffffffffffffffff1681526020019081526020016000205490506000600660003373ffffffffffffffffffffffffffffffffffffffff1673ffffffffffffffffffffffffffffffffffffffff168152602001908152602001600020819055508082600f015414156133a75760006132b66116f2565b905060008360080184600f01546002811015156132cf57fe5b0160009054906101000a900473ffffffffffffffffffffffffffffffffffffffff1690508073ffffffffffffffffffffffffffffffffffffffff166108fc839081150290604051600060405180830381858888f19350505050158015613339573d6000803e3d6000fd5b506000809054906101000a900473ffffffffffffffffffffffffffffffffffffffff1673ffffffffffffffffffffffffffffffffffffffff166108fc6002549081150290604051600060405180830381858888f193505050501580156133a3573d6000803e3d6000fd5b5050505b505050565b60008082111515613425576040517f08c379a00000000000000000000000000000000000000000000000000000000081526004018080602001828103825260148152602001807f47616d65204944206973206e6f742076616c696400000000000000000000000081525060200191505060405180910390fd5b600454821115151561349f576040517f08c379a00000000000000000000000000000000000000000000000000000000081526004018080602001828103825260148152602001807f47616d65204944206973206e6f742076616c696400000000000000000000000081525060200191505060405180910390fd5b600060056000848152602001908152602001600020905060008160060160016002811015156134ca57fe5b01548260060160006002811015156134de57fe5b01541890506000816001900490506002818115156134f857fe5b069350505050919050565b6000808211151561357c576040517f08c379a00000000000000000000000000000000000000000000000000000000081526004018080602001828103825260138152602001807f49442049677265206e692076656c6a6176656e0000000000000000000000000081525060200191505060405180910390fd5b613584613bab565b6005600084815260200190815260200160002061014060405190810160405290816000820160009054906101000a900460ff1660028111156135c257fe5b60028111156135cd57fe5b815260200160018201548152602001600282015481526020016003820154815260200160048201600280602002604051908101604052809291906000905b828210156136be578382018054600181600116156101000203166002900480601f0160208091040260200160405190810160405280929190818152602001828054600181600116156101000203166002900480156136aa5780601f1061367f576101008083540402835291602001916136aa565b820191906000526020600020905b81548152906001019060200180831161368d57829003601f168201915b50505050508152602001906001019061360b565b50505050815260200160068201600280602002604051908101604052809291908260028015613702576020028201915b8154815260200190600101908083116136ee575b505050505081526020016008820160028060200260405190810160405280929190826002801561377d576020028201915b8160009054906101000a900473ffffffffffffffffffffffffffffffffffffffff1673ffffffffffffffffffffffffffffffffffffffff1681526020019060010190808311613733575b50505050508152602001600d8201548152602001600e8201548152602001600f820154815250509050806101000151915050919050565b6000600454905090565b600080600660003373ffffffffffffffffffffffffffffffffffffffff1673ffffffffffffffffffffffffffffffffffffffff16815260200190815260200160002054905060008111151561387b576040517f08c379a000000000000000000000000000000000000000000000000000000000815260040180806020018281038252601d8152602001807f55706f7261626e696b207472656e75746e6f206e69207620696772692e00000081525060200191505060405180910390fd5b600060056000838152602001908152602001600020905060004360035483600101540103905060008110156138af57600090505b80935050505090565b600080600660003373ffffffffffffffffffffffffffffffffffffffff1673ffffffffffffffffffffffffffffffffffffffff168152602001908152602001600020549050600081111515613975576040517f08c379a000000000000000000000000000000000000000000000000000000000815260040180806020018281038252601d8152602001807f55706f7261626e696b207472656e75746e6f206e69207620696772692e00000081525060200191505060405180910390fd5b61397d613bab565b6005600083815260200190815260200160002061014060405190810160405290816000820160009054906101000a900460ff1660028111156139bb57fe5b60028111156139c657fe5b815260200160018201548152602001600282015481526020016003820154815260200160048201600280602002604051908101604052809291906000905b82821015613ab7578382018054600181600116156101000203166002900480601f016020809104026020016040519081016040528092919081815260200182805460018160011615610100020316600290048015613aa35780601f10613a7857610100808354040283529160200191613aa3565b820191906000526020600020905b815481529060010190602001808311613a8657829003601f168201915b505050505081526020019060010190613a04565b50505050815260200160068201600280602002604051908101604052809291908260028015613afb576020028201915b815481526020019060010190808311613ae7575b5050505050815260200160088201600280602002604051908101604052809291908260028015613b76576020028201915b8160009054906101000a900473ffffffffffffffffffffffffffffffffffffffff1673ffffffffffffffffffffffffffffffffffffffff1681526020019060010190808311613b2c575b50505050508152602001600d8201548152602001600e8201548152602001600f82015481525050905080602001519250505090565b6101a06040519081016040528060006002811115613bc557fe5b8152602001600081526020016000815260200160008152602001613be7613d74565b8152602001613bf4613d9b565b8152602001613c01613dbd565b81526020016000801916815260200160008152602001600081525090565b828054600181600116156101000203166002900490600052602060002090601f016020900481019282601f10613c6057805160ff1916838001178555613c8e565b82800160010185558215613c8e579182015b82811115613c8d578251825591602001919060010190613c72565b5b509050613c9b9190613ddf565b5090565b8260028101928215613ce9579182015b82811115613ce85782829080546001816001161561010002031660029004613cd8929190613e04565b5091600101919060010190613caf565b5b509050613cf69190613e8b565b5090565b8260028101928215613d26579182015b82811115613d25578254825591600101919060010190613d0a565b5b509050613d339190613eb7565b5090565b8260028101928215613d63579182015b82811115613d62578254825591600101919060010190613d47565b5b509050613d709190613edc565b5090565b60408051908101604052806002905b6060815260200190600190039081613d835790505090565b6040805190810160405280600290602082028038833980820191505090505090565b6040805190810160405280600290602082028038833980820191505090505090565b613e0191905b80821115613dfd576000816000905550600101613de5565b5090565b90565b828054600181600116156101000203166002900490600052602060002090601f016020900481019282601f10613e3d5780548555613e7a565b82800160010185558215613e7a57600052602060002091601f016020900482015b82811115613e79578254825591600101919060010190613e5e565b5b509050613e879190613ddf565b5090565b613eb491905b80821115613eb05760008181613ea79190613f1f565b50600101613e91565b5090565b90565b613ed991905b80821115613ed5576000816000905550600101613ebd565b5090565b90565b613f1c91905b80821115613f1857600081816101000a81549073ffffffffffffffffffffffffffffffffffffffff021916905550600101613ee2565b5090565b90565b50805460018160011615610100020316600290046000825580601f10613f455750613f64565b601f016020900490600052602060002090810190613f639190613ddf565b5b5056fea165627a7a7230582026c369be631955a44c420539b7a8e959c1900307d5b7f59450da9a84664fbf8b0029",
  "source": "pragma solidity ^0.5.0;\n\ncontract Igralnica {\n\n    string constant Author = \"Jonas Lasan\";\n    string constant Data = \"April 20, 2019\";\n\n    address payable Owner;\n\n    constructor () public {\n        Owner = msg.sender;\n    }\n\n    uint EntranceFee = 0.05 ether;\n    function getEntranceFee () public view returns (uint)\n    {\n        return EntranceFee;\n    }\n\n    // Automatically paid to casino owner\n    uint casinoFee = 0.0050 ether;\n    function getCasinoFee () public view returns (uint)\n    {\n        return casinoFee;\n    }\n\n\n    // Time limit to reveal your number after the first player (in number of blocks)\n    uint timeLimit = 5760;\n\n    enum GameState\n    {\n        AcceptingSignatures,\n        AcceptingValues,\n        End\n    }\n\n    struct Game\n    {\n        GameState state;\n\n        uint gameStartBlock;\n\n        uint PlayerCounter;\n        uint RevealedNumbersCounter;\n\n        bytes[2] DigitalSignatures;\n        bytes32[2] Hashes;\n\n\n        address payable[2] PlayerAddresses;\n\n        mapping (address => uint) PlayerIndex;\n        mapping (address => bool) PlayerExists;\n\n        mapping (address => bool) PlayerAlreadyRevealed;\n\n        // End state\n        bytes32 Xor;\n        uint DecimalValue;\n        uint WinnerIndex;\n    }\n\n    uint gamesCounter = 1;\n    mapping (uint => Game) AllGames;\n\n\n    /*-- Data getters / queries --*/\n\n    /* - Player queries (based on sender address) - */\n    function getMyGameStartBlock() public view returns (uint)\n    {\n        uint gameId = myGame[msg.sender];\n\n        require (gameId > 0, \"Uporabnik trenutno ni v igri.\");\n\n        Game memory game = AllGames[gameId];\n        return game.gameStartBlock;\n    }\n    function getMyIndex() public view returns (uint)\n    {\n        uint gameId = myGame[msg.sender];\n\n        require (gameId > 0, \"Uporabnik trenutno ni v igri.\");\n\n        Game storage game = AllGames[gameId];\n        return game.PlayerIndex[msg.sender];\n    }\n    function getMyTimeLimit() public view returns (uint)\n    {\n        uint gameId = myGame[msg.sender];\n\n        require (gameId > 0, \"Uporabnik trenutno ni v igri.\");\n\n        Game storage game = AllGames[gameId];\n        uint trajanje = (game.gameStartBlock + timeLimit) - block.number;\n        if (trajanje < 0)\n        {\n            trajanje = 0;\n        }\n\n        return uint(trajanje);\n    }\n\n    function getMyWinner() public view returns(address)\n    {\n        uint gameId = myGame[msg.sender];\n\n        Game memory game = AllGames[gameId];\n\n        return game.PlayerAddresses[game.WinnerIndex];\n    }\n\n    function getMyGameState() public view returns (uint)\n    {\n        uint gameId = getMyGameId();\n        Game storage game = AllGames[gameId];\n\n        GameState state = game.state;\n\n        if (state == GameState.AcceptingSignatures)\n        {\n            return 0;\n        }\n        else if (state == GameState.AcceptingValues)\n        {\n            bool alreadyRevealed = game.PlayerAlreadyRevealed[msg.sender];\n\n            if (!alreadyRevealed){\n                return 1;\n            }\n            else\n            {\n                // akamo druge na razkritje\n                return 2;\n            }\n        }\n        else\n        {\n            // Konec igre\n            return 3;\n        }\n    }\n\n    /* - Deneric queries - */\n    function getDigitalSignature (uint gameId, uint playerId) public view returns (bytes memory)\n    {\n        require (gameId > 0, \"Game ID is not valid\");\n\n        Game memory game = AllGames[gameId];\n        return game.DigitalSignatures[playerId];\n    }\n\n    function getHash (uint gameId, uint playerId) public view returns (bytes32)\n    {\n        require (gameId > 0, \"Game ID is not valid\");\n\n        Game memory game = AllGames[gameId];\n        return game.Hashes[playerId];\n    }\n\n    function getPlayerAddress (uint gameId, uint playerId) public view returns (address)\n    {\n        require (gameId > 0, \"ID Igre ni veljaven\");\n\n        Game memory game = AllGames[gameId];\n        return game.PlayerAddresses[playerId];\n    }\n\n    function getXor (uint gameId) public view returns (bytes32)\n    {\n        require (gameId > 0, \"ID Igre ni veljaven\");\n\n        Game memory game = AllGames[gameId];\n        return game.Xor;\n    }\n\n    function getDecimalValue (uint gameId) public view returns (uint)\n    {\n        require (gameId > 0, \"ID Igre ni veljaven\");\n\n        Game memory game = AllGames[gameId];\n\n        return game.DecimalValue;\n    }\n\n    function getWinnerIndex (uint gameId) public view returns (uint)\n    {\n        require (gameId > 0, \"ID Igre ni veljaven\");\n\n        Game memory game = AllGames[gameId];\n        return game.WinnerIndex;\n    }\n\n\n    // One player can be present in one game at the time\n    mapping (address => uint) myGame;\n\n    function getMyGameId() public view returns(uint)\n    {\n        return myGame[msg.sender];\n    }\n\n    function getGameCount() view public returns(uint)\n    {\n        return gamesCounter;\n    }\n\n    function getContractBalance() public view returns (uint){\n        return address(this).balance;\n    }\n\n    function EnterTheGame(bytes memory signature) public payable\n    {\n        require(msg.value >= EntranceFee, \"Not enough ether for the entrance fee\");\n\n        // We return the ether in case player overpaid\n        uint delta = msg.value - EntranceFee;\n        msg.sender.transfer(delta);\n\n        // Player must not already be in a game\n        require(myGame[msg.sender] == 0, \"Player is already in game\");\n\n        Game storage game = AllGames[gamesCounter];\n\n        require (game.PlayerCounter < 2, \"Game is already full\");\n        require (game.state == GameState.AcceptingSignatures, \"Game is no longer in the satste of accepting signatures\");\n\n        game.DigitalSignatures[game.PlayerCounter] = signature;\n        game.PlayerIndex[msg.sender] = game.PlayerCounter;\n        game.PlayerAddresses[game.PlayerCounter] = msg.sender;\n\n        game.PlayerCounter += 1;\n\n        myGame[msg.sender] = gamesCounter;\n\n        if (game.PlayerCounter >= 2)\n        {\n            game.state = GameState.AcceptingValues;\n            game.gameStartBlock = block.number;\n            AllGames[gamesCounter] = game;\n            gamesCounter += 1;\n        }\n        else\n        {\n            AllGames[gamesCounter] = game;\n        }\n    }\n\n    function Reveal(bytes32 hash) public returns (address payable)\n    {\n        uint gameId = myGame[msg.sender];\n\n        require (gameId > 0, \"Game ID is not valid\");\n        require (gameId <= gamesCounter, \"Game ID is not valid\");\n\n        Game storage game = AllGames[gameId];\n\n        require (game.state == GameState.AcceptingValues, \"Game is not in the state of accepting values\");\n        require (game.PlayerAlreadyRevealed[msg.sender] == false, \"Player already revealed his value\");\n\n        uint myIndex = game.PlayerIndex[msg.sender];\n\n        // Check that value in fact correlates to the signature\n        bytes storage mySignature = game.DigitalSignatures[myIndex];\n        address recoveredAddress = recover(hash, mySignature);\n\n        require (recoveredAddress == msg.sender, \"Value does not match the signature\");\n\n        game.PlayerAlreadyRevealed[msg.sender] = true;\n        game.RevealedNumbersCounter += 1;\n        game.Hashes[myIndex] = hash;\n\n        if (game.RevealedNumbersCounter == 2)\n        {\n            // End the game\n            game.state = GameState.End;\n\n            // Calculate the winner\n            game.Xor = game.Hashes[0] ^ game.Hashes[1];\n            game.DecimalValue = uint(game.Xor);\n            uint winnerIndex = calculateWinner(gameId);\n            game.WinnerIndex = winnerIndex;\n        }\n\n        AllGames[gameId] = game;\n    }\n\n    function LeaveTheGame() public {\n\n        uint gameId = myGame[msg.sender];\n\n        require(gameId > 0);\n\n        Game storage game = AllGames[gameId];\n\n        require (game.state == GameState.End);\n\n        uint myIndex = game.PlayerIndex[msg.sender];\n\n        // Igralca se sedaj sprostita in lahko prineta novo igro\n        myGame[msg.sender] = 0;\n\n        if (game.WinnerIndex == myIndex)\n        {\n            uint reward = getReward();\n\n            // Izplaamo nagrado\n            address payable winner = game.PlayerAddresses[game.WinnerIndex];\n\n            winner.transfer(reward);\n            Owner.transfer(casinoFee);\n        }\n    }\n\n    function getReward() public view returns (uint)\n    {\n        return (EntranceFee * 2) - casinoFee;\n    }\n\n    function AbortGame() public\n    {\n        uint myGameId = myGame[msg.sender];\n\n        require(myGameId > 0, \"Player is not in any game\");\n\n        Game memory game = AllGames[myGameId];\n        require (game.state == GameState.AcceptingSignatures, \"Game is no longer in entry phase\");\n\n        myGame[msg.sender] = 0;\n\n        // Pay back the entrance fee\n        msg.sender.transfer(EntranceFee);\n\n        gamesCounter += 1;\n    }\n\n    function calculateWinner (uint gameId) public view returns (uint)\n    {\n        require (gameId > 0, \"Game ID is not valid\");\n        require (gameId <= gamesCounter, \"Game ID is not valid\");\n\n        Game storage game = AllGames[gameId];\n\n        bytes32 xored = game.Hashes[0] ^ game.Hashes[1];\n\n        uint decimal = uint(xored);\n\n        return decimal % 2;\n    }\n\n    /// If other player didn't reveal his value in 24 hours\n    function TakeReward() public\n    {\n        uint gameId = myGame[msg.sender];\n\n        require(gameId > 0);\n\n        Game storage game = AllGames[gameId];\n\n        require (game.state == GameState.AcceptingValues);\n\n        bool hasRevealed = game.PlayerAlreadyRevealed[msg.sender];\n\n        require (hasRevealed == true);\n\n        uint gameEnd = game.gameStartBlock + timeLimit;\n\n        require (block.number >= gameEnd, \"Time limit is not over yet\");\n\n        uint reward = getReward();\n\n        msg.sender.transfer(reward);\n        Owner.transfer(casinoFee);\n\n        address firstPlayer = game.PlayerAddresses[0];\n        address secondPlayer = game.PlayerAddresses[1];\n\n        myGame[firstPlayer] = 0;\n        myGame[secondPlayer] = 0;\n    }\n\n\n    function recover(bytes32 hash, bytes memory signature)\n      public\n      pure\n      returns (address)\n    {\n      bytes32 r;\n      bytes32 s;\n      uint8 v;\n\n      bytes32 newHash = toEthSignedMessageHash(hash);\n\n      // Check the signature length\n      if (signature.length != 65) {\n        return (address(0));\n      }\n\n      // Divide the signature in r, s and v variables with inline assembly.\n      assembly {\n        r := mload(add(signature, 0x20))\n        s := mload(add(signature, 0x40))\n        v := byte(0, mload(add(signature, 0x60)))\n      }\n\n      // Version of signature should be 27 or 28, but 0 and 1 are also possible versions\n      if (v < 27) {\n        v += 27;\n      }\n\n      // If the version is correct return the signer address\n      if (v != 27 && v != 28) {\n        return (address(0));\n      } else {\n        return ecrecover(newHash, v, r, s);\n      }\n    }\n\n    function toEthSignedMessageHash(bytes32 hash)\n      public\n      pure\n      returns (bytes32)\n    {\n      return keccak256(\n        abi.encodePacked(\"\\x19Ethereum Signed Message:\\n32\", hash)\n      );\n    }\n}\n",
  "sourcePath": "C:/Users/Jonas/Documents/GitHub/EthereumCasino/contracts/Igralnica.sol",
  "compiler": {
    "name": "solc",
    "version": "0.5.0+commit.1d4f565a.Emscripten.clang"
  },
  "schemaVersion": "3.0.2",
  "updatedAt": "2019-05-25T19:08:05.239Z",
  "devdoc": {
    "methods": {}
  },
  "userdoc": {
    "methods": {
      "TakeReward()": {
        "notice": "If other player didn't reveal his value in 24 hours"
      }
    }
  }
}